:0300000002059264
:0C059200787FE4F6D8FD75815A0205D987
:0E0C3E00900030749EF0900030E014F070F8DA
:010C4C002285
:08000300D2B4120C3EC2B4227B
:1006A8007D807C007F0B120C0A7D807C007F0B1202
:1006B8000C0A7D037C1E7F20120C0A7D017C007FC2
:1006C80022120C0A74D8FDFC7F23120C0A7D207CB0
:1006D8000D7F24120C0A7DFF7C077F25120C0A7DF2
:1006E800027C007F27120C0A74D8FDFC7F28120CAC
:1006F8000A7D207C057F29120C0A7DFF7C077F2A52
:10070800120C0A7D877C007F21120C0A7D057C0073
:0B0718007F2C120C0A12004E02085346
:040B38007D007C04BC
:100B3C008C318D32D2A2120C1CAF32120C1CE5314E
:070B4C00FF120C1CC2A222E3
:100AC300E4F531F532D2A2EF4440FF120C1C7FFF54
:100AD300120C1CEFFEEE42317FFF120C1CEF423270
:060AE300C2A2AE31AF32E9
:010AE90022EA
:10004E007D0A7C5C7F20120B3CE4FDFC7F21120BB1
:10005E003C7D037C167F22120B3C74C8FDFC7F2373
:10006E00120B3C7F24120B3874FFFDFC7F25120B04
:10007E003C7D037C167F27120B3C74C8FDFC7F2849
:10008E00120B3C7F29120B387DFF7C0F7F2A020B4F
:01009E003C25
:10085300E4FDFCFF120B3C7D007C667F01120B3C28
:100863007D007C547F02120B3C7D107C0E7F0312B3
:100873000B3C7D377C847F04120B3C7D047C017F21
:1008830005120B3C7D427C007F0A120B3C7D007CF1
:0F089300047F0B120B3C7D007C0D7F0E020B3C93
:100B5300AD07AC06D3ED94FFEC9403500CE4FF1205
:0A0B63000B3CD2B5120C3EC2B522C5
:10061E00E4900031F0A3F0E5586401455770397F3E
:10062E0024120AC3900031EEF0A3EFF0EE540C90BA
:10063E000031F0A3E4F0900031E03000134401FEED
:10064E00A3E0FF900031EEF0FCA3EFF0AD078004C5
:10065E00FCA3E0FD7F2480377F29120AC39000316E
:10066E00EEF0A3EFF0EE5404900031F0A3E4F0901E
:10067E000031E03000134401FEA3E0FF900031EEA4
:10068E00F0FCA3EFF0AD078004FCA3E0FD7F291280
:09069E000B3CD2B4120C3EC2B4B4
:0106A7002230
:10079700E490002EF0A3F0D3E53094FFE52F94000A
:1007A7005059C3E52F940040527F24120AC390008A
:1007B7002EEEF0A3EFF0EE540CFE7F0090002EF02B
:1007C700A3EFF0E52F4EFFE53090002ECFF0A3EF1B
:1007D700F090002EE03002134401FEA3E0FF9000EA
:1007E7002EEEF0FCA3EFF0AD078004FCA3E0FD7F45
:0B07F70024120B3CD2B4120C3EC2B422
:0108020022D3
:10072300E490002EF0A3F0D3E53094FFE52F94007E
:100733005061C3E52F9400405AE4FDFC7F24120B63
:100743003C7F29120AC390002EEEF0A3EFF0EE5483
:1007530004FE7F0090002EF0A3EFF0E52F4EFFE59F
:100763003090002ECFF0A3EFF090002EE030021374
:100773004401FEA3E0FF90002EEEF0FCA3EFF0ADEA
:10078300078004FCA3E0FD7F29120B3CD2B4120CBA
:030793003EC2B4AF
:010796002240
:090CC8007D007C047F24020B3C3A
:090CD1007D007C047F29020B3C2C
:100A6E00E4F52FF530752F037530FFAF30AE2F1232
:100A7E000B53E53015307002152FD3E5309400E599
:0B0A8E002F940050E6E4FFFE020B5323
:090CDA00AD07AC067F25020B3CBE
:090CE300AD07AC067F2A020B3CB0
:100AEA00D2B5000000000000000000000000000075
:100AFA000000C2B500000000000000000000000075
:070B0A0000000000D2B5223B
:0A0CBE00000000000000000000002C
:1008A20060230000FF010020000021FF0100400042
:1008B2000041FF010080000081FF010100000002F1
:1008C200FF0100000000010153000151000152002C
:100B9D007FFEEFFD3395E0FCD3ED9400EC64809483
:060BAD008040031F80ECF4
:010BB300221F
:100803007F007E04120BE17F017E04120BE17F0265
:100813007E04120BE17F037E04120BE17404FFFEDE
:10082300120BE17DFF7F007E04120B857DFF7F01AC
:100833007E04120B857DFF7F027E04120B857DFFF4
:100843007F037E04120B857DFF7404FFFE020B857C
:100985008F498D4A8B4B7F007E04120BE17F017EE0
:1009950004120BE17F027E04120BE17F037E041239
:1009A5000BE1AD497F007E04120B85AD4A7F017EC8
:1009B50004120B85AD4B7F027E04120B85AD4C7F77
:0609C500037E04020B8515
:04093B008F4D8D4E01
:10093F00784F7C007D007BFF7A0C79BE7E007F02B2
:10094F0012052BC3748094804028748094804022B9
:10095F00D3E54F94FF748094805017E55094FF7443
:10096F00809480500D854D4F854E50E54FFEE550DC
:05097F00FF22E4FEFF71
:010984002250
:10002600C3E54794004015E54712056AAB44AA4567
:10003600A946E54812056A7E007F0122E4FEFF22FA
:1008EF00C3E53F94004041AE3FE5407818CEC313B7
:1008FF00CE13D8F912056AAE3FE5407810CEC31378
:10090F00CE13D8F9AB36AA37A93812056AE53FAB33
:10091F0036AA37A93812056AAB36AA37A938E54087
:0C092F0012056A7E007F0122E4FEFF2218
:070CFC0090FE007448F02295
:0E0C4D0000007F0D7E2D7DD6DDFEDEFCDFFA81
:010C5B002276
:0D0C8900007F137E447D43DDFEDEFCDFFABC
:010C9600223B
:0E0C5C0000007F197E5A7DB0DDFEDEFCDFFA5F
:010C6A002267
:0C0CB200C2AC8F993099FDC2997F0022DE
:1000A600E4900023F0A3F0A3F0A3F0A3F0A3F0A341
:1000B600F0A3F0A3F0A3F0A37404F0E4F521F52275
:1000C600F523F52478257C00FD7BFF7A0C79C0FEAC
:1000D6007F0412052B78297C007D007BFF7A0C7942
:1000E600C47E007F0412052B752D41E4F52E120CFB
:1000F600FC120C7A120C2D120C6B7F01120B1112D2
:100106000AEA1206A8120A6E7F62120CEC2001039C
:10011600020210900000E065117028A3E0651270DD
:1001260022A3E06513701CA3E0B51417A3E0B51570
:1001360012A3E0B5160DA3E0B51708E490002DF064
:1001460002020B900007E065117029A3E0651270AA
:1001560023A3E06513701DA3E0B51418A3E0B5153D
:1001660013A3E0B5160EA3E0B5170990002D740190
:10017600F002020B90000EE065117028A3E06512F4
:100186007022A3E06513701CA3E0B51417A3E0B5B5
:100196001512A3E0B5160DA3E0B5170890002D744F
:1001A60002F08061900015E065117028A3E06512E9
:1001B6007022A3E06513701CA3E0B51417A3E0B585
:1001C6001512A3E0B5160DA3E0B5170890002D741F
:1001D60003F0803190001CE065117029A3E06512E0
:1001E6007023A3E06513701DA3E0B51418A3E0B552
:1001F6001513A3E0B5160EA3E0B5170990002D74EC
:1002060004F0E4F52EE4F510C20190002DE0B407E9
:10021600004003020455900223F82828730202388E
:1002260002028E0202E502033B0203950203B902B3
:10023600040C900028E0FFC374149F7480F8989013
:100246000025400CE4F0A37435F07F007E0C800A94
:10025600E4F0A374FFF07F007E04120CE3D2029058
:100266000025E0F52FA3E0F530120723900025E0E6
:10027600FEA3E0FF90002AE02FF0900029E03EF078
:10028600900028E00402038E900028E0FFC3741457
:100296009F7480F898900025400CE4F0A37435F024
:1002A6007F007E0C800AE4F0A374FFF07F007E04DA
:1002B600120CE3C202900025E0F52FA3E0F5301200
:1002C6000723900028E004F0900025E0FEA3E0FF5D
:1002D600C390002AE09FF0900029E09E02038E90D2
:1002E6000027E0FFC374049F7480F89890002340B1
:1002F6000CE4F0A37404F074FFFFFE800AE4F0A39C
:1003060074FFF07F007E04120CDAD202900023E024
:10031600F52FA3E0F530120797900027E004F09040
:100326000023E0FEA3E0FFC390002CE09FF09000C6
:100336002BE09E8053900027E0FFC374049F7480D7
:10034600F898900023400CE4F0A37404F074FFFFC7
:10035600FE800AE4F0A374FFF07F007E04120CDA3C
:10036600C202900023E0F52FA3E0F5301207979024
:100376000027E004F0900023E0FEA3E0FF90002CAD
:10038600E02FF090002BE03EF0120C4D02010EE43F
:10039600900027F0A3F074FFFFFE120CDA74FFFF43
:1003A600FE120CE3120CC8120CD190002D7407F04B
:1003B60002010E7F007E08120CE3C202752F007543
:1003C60030FF120723E55360080522E52270020577
:1003D60021AE21AF22E4FCFD7BC47A86F9F8C31274
:1003E600057C400302010E74FFFFFE120CDA74FF57
:1003F600FFFE120CE3120CC8120CD190002D7406ED
:10040600F0120B9D80437F007E08120CDAD2027533
:100416002F007530FF120797E55160080524E52483
:1004260070020523D3E5249460E523946D500302FE
:10043600010E90002D7404F012009F120803E49040
:100446000029F0A3F0A3F0A3F0120B9D02010E12F7
:050456000B9D02010EE8
:0608D200015A000159006B
:100A1100E4FDFCC3ED9FEE6480F8EC648098501E09
:100A2100E4FCFDC3ED9FEE6480F8EC648098500710
:0E0A31000DBD00010C80EC0DBD00010C80D548
:010A3F002294
:040046007F9EDFFEBC
:01004A002293
:03004B00020D03A0
:070D030075CDC085CF593208
:0F0C6B0075A20475CEFC75CDC0E4F5CFC2A222F0
:100C1C008FCFE5CD548060FA75CDC085CF5AAF5AD1
:010C2C0022A5
:0E0C9700E5CD548060FA75CDC0E5CF02056A48
:100C0A00D2A2120C1CAF05120C1CAF04120C1CC28F
:020C1A00A22214
:100A4000E4F554F555F556D2A2EF2440FF120C1CE4
:100A50007B007A007955120C977A0009120C97C224
:0D0A6000A2E556FE7C00E42555FFEC3EFEAD
:010A6D002266
:100B1100EF14600E1460121460162403701853CE83
:100B2100FC2253CEFC43CE012253CEFC43CE022203
:070B310053CEFC43CE03226A
:10000E00538E7F5389F0758A30758CF8C28DD28CE1
:05001E00D2A9D2AF22BF
:03000B00020D11D2
:010D110032AF
:0F0C7A0075D33075D2F875D18075AF40D2AF22E7
:0300A300020A99B5
:100A9900C0E0C0D075D008E55370047F0180027FA3
:100AA900008F53E55170047F0180027F008F5175DB
:0A0AB900520153EFFBD0D0D0E03221
:04009F00E4F5D12291
:070D0A0075D18075AF402296
:1008D800011000C1010F110000000000000000001D
:0608E8000000000000000A
:030023000209CB04
:1009CB00C0E0C0D075D008309837C298200132C330
:1009DB00E510940F748094805025AF10051074119E
:1009EB002FF8A699E599640D6011E599640A600BDF
:1009FB00C3E5109407748094804006D2018002D224
:060A0B0001D0D0D0E03262
:080CEC008F993099FDC2992295
:100BF700120551FF600C120CEC740129F9E43AFA62
:030C070080EE225A
:100BB400AF051DEF6010120551FF120CEC740129F2
:070BC400F9E43AFA80EA228D
:070CF4003098FDC298AF9992
:010CFB0022D6
:100BCB001205516010120CF4EF12056A740129F929
:060BDB00E43AFA80EB226F
:100C2D0075985075D78F75D6FD758E15D2ACD2AF20
:010C3D002294
:0D0CA500E4F5C7F5C5F5C675C380F5C4229A
:100B6D0075C78175C5018FC4EEFF8FC375C65A75E4
:080B7D00C6A500AFC2020CA5E1
:100B850075C78175C5028FC4EEFF8FC38DC275C64B
:080B95005A75C6A500020CA56B
:100BE10075C78175C5038FC4EEFF8FC375C65A756E
:060BF100C6A500020CA5E0
:10059E000200A6E493A3F8E493A34003F68001F2CD
:1005AE0008DFF48029E493A3F85407240CC8C3335E
:1005BE00C4540F4420C8834004F456800146F6DF2D
:1005CE00E4800B01020408102040809008A2E47E13
:1005DE00019360BCA3FF543F30E509541FFEE49322
:1005EE00A360010ECF54C025E060A840B8E493A3E9
:1005FE00FAE493A3F8E493A3C8C582C8CAC583CA14
:10060E00F0A3C8C582C8CAC583CADFE9DEE780BECB
:0108EE000009
:10045B00E709F608DFFA8046E709F208DFFA803E83
:10046B0088828C83E709F0A3DFFA8032E309F60870
:10047B00DFFA8078E309F208DFFA807088828C83D8
:10048B00E309F0A3DFFA806489828A83E0A3F6088C
:10049B00DFFA805889828A83E0A3F208DFFA804C66
:1004AB0080D280FA80C680D4806980F2803380103D
:1004BB0080A680EA809A80A880DA80E280CA8033A6
:1004CB0089828A83ECFAE493A3C8C582C8CCC5831E
:1004DB00CCF0A3C8C582C8CCC583CCDFE9DEE780EE
:1004EB000D89828A83E493A3F608DFF9ECFAA9F06D
:1004FB00EDFB2289828A83ECFAE0A3C8C582C8CCC3
:10050B00C583CCF0A3C8C582C8CCC583CCDFEADEDB
:10051B00E880DB89828A83E493A3F208DFF980CC3D
:10052B0088F0EF60010E4E60C388F0ED2402B40436
:10053B000050B9F582EB2402B4040050AF232345DD
:06054B0082239004AB7353
:10055100BB010689828A83E0225002E722BBFE02A8
:09056100E32289828A83E49322DB
:10056A00BB010689828A83F0225002F722BBFE0170
:02057A00F3226A
:10057C00EB9FF5F0EA9E42F0E99D42F0EC6480C8F6
:06058C0064809845F02296
:00000001FF
